{
  "_format": "hh-sol-artifact-1",
  "contractName": "XStakingPool",
  "sourceName": "contracts/XStakingPool.sol",
  "abi": [
    {
      "inputs": [
        {
          "internalType": "address",
          "name": "target",
          "type": "address"
        }
      ],
      "name": "AddressEmptyCode",
      "type": "error"
    },
    {
      "inputs": [
        {
          "internalType": "address",
          "name": "account",
          "type": "address"
        }
      ],
      "name": "AddressInsufficientBalance",
      "type": "error"
    },
    {
      "inputs": [
        {
          "internalType": "address",
          "name": "spender",
          "type": "address"
        },
        {
          "internalType": "uint256",
          "name": "allowance",
          "type": "uint256"
        },
        {
          "internalType": "uint256",
          "name": "needed",
          "type": "uint256"
        }
      ],
      "name": "ERC20InsufficientAllowance",
      "type": "error"
    },
    {
      "inputs": [
        {
          "internalType": "address",
          "name": "sender",
          "type": "address"
        },
        {
          "internalType": "uint256",
          "name": "balance",
          "type": "uint256"
        },
        {
          "internalType": "uint256",
          "name": "needed",
          "type": "uint256"
        }
      ],
      "name": "ERC20InsufficientBalance",
      "type": "error"
    },
    {
      "inputs": [
        {
          "internalType": "address",
          "name": "approver",
          "type": "address"
        }
      ],
      "name": "ERC20InvalidApprover",
      "type": "error"
    },
    {
      "inputs": [
        {
          "internalType": "address",
          "name": "receiver",
          "type": "address"
        }
      ],
      "name": "ERC20InvalidReceiver",
      "type": "error"
    },
    {
      "inputs": [
        {
          "internalType": "address",
          "name": "sender",
          "type": "address"
        }
      ],
      "name": "ERC20InvalidSender",
      "type": "error"
    },
    {
      "inputs": [
        {
          "internalType": "address",
          "name": "spender",
          "type": "address"
        }
      ],
      "name": "ERC20InvalidSpender",
      "type": "error"
    },
    {
      "inputs": [],
      "name": "FailedInnerCall",
      "type": "error"
    },
    {
      "inputs": [],
      "name": "InvalidInitialization",
      "type": "error"
    },
    {
      "inputs": [],
      "name": "NotInitializing",
      "type": "error"
    },
    {
      "inputs": [
        {
          "internalType": "address",
          "name": "owner",
          "type": "address"
        }
      ],
      "name": "OwnableInvalidOwner",
      "type": "error"
    },
    {
      "inputs": [
        {
          "internalType": "address",
          "name": "account",
          "type": "address"
        }
      ],
      "name": "OwnableUnauthorizedAccount",
      "type": "error"
    },
    {
      "inputs": [
        {
          "internalType": "address",
          "name": "token",
          "type": "address"
        }
      ],
      "name": "SafeERC20FailedOperation",
      "type": "error"
    },
    {
      "anonymous": false,
      "inputs": [
        {
          "indexed": true,
          "internalType": "address",
          "name": "owner",
          "type": "address"
        },
        {
          "indexed": true,
          "internalType": "address",
          "name": "spender",
          "type": "address"
        },
        {
          "indexed": false,
          "internalType": "uint256",
          "name": "value",
          "type": "uint256"
        }
      ],
      "name": "Approval",
      "type": "event"
    },
    {
      "anonymous": false,
      "inputs": [
        {
          "indexed": false,
          "internalType": "uint64",
          "name": "version",
          "type": "uint64"
        }
      ],
      "name": "Initialized",
      "type": "event"
    },
    {
      "anonymous": false,
      "inputs": [
        {
          "indexed": true,
          "internalType": "address",
          "name": "previousOwner",
          "type": "address"
        },
        {
          "indexed": true,
          "internalType": "address",
          "name": "newOwner",
          "type": "address"
        }
      ],
      "name": "OwnershipTransferStarted",
      "type": "event"
    },
    {
      "anonymous": false,
      "inputs": [
        {
          "indexed": true,
          "internalType": "address",
          "name": "previousOwner",
          "type": "address"
        },
        {
          "indexed": true,
          "internalType": "address",
          "name": "newOwner",
          "type": "address"
        }
      ],
      "name": "OwnershipTransferred",
      "type": "event"
    },
    {
      "anonymous": false,
      "inputs": [
        {
          "indexed": false,
          "internalType": "address",
          "name": "token",
          "type": "address"
        },
        {
          "indexed": false,
          "internalType": "uint256",
          "name": "tokenAmount",
          "type": "uint256"
        },
        {
          "indexed": false,
          "internalType": "uint256",
          "name": "baseTokenAmount",
          "type": "uint256"
        }
      ],
      "name": "TokenSwap",
      "type": "event"
    },
    {
      "anonymous": false,
      "inputs": [
        {
          "indexed": false,
          "internalType": "address[]",
          "name": "tokens",
          "type": "address[]"
        },
        {
          "indexed": false,
          "internalType": "uint256[]",
          "name": "tokenAmounts",
          "type": "uint256[]"
        }
      ],
      "name": "TokensAmounts",
      "type": "event"
    },
    {
      "anonymous": false,
      "inputs": [
        {
          "indexed": true,
          "internalType": "address",
          "name": "from",
          "type": "address"
        },
        {
          "indexed": true,
          "internalType": "address",
          "name": "to",
          "type": "address"
        },
        {
          "indexed": false,
          "internalType": "uint256",
          "name": "value",
          "type": "uint256"
        }
      ],
      "name": "Transfer",
      "type": "event"
    },
    {
      "inputs": [],
      "name": "FEE_DENOMINATOR",
      "outputs": [
        {
          "internalType": "uint256",
          "name": "",
          "type": "uint256"
        }
      ],
      "stateMutability": "view",
      "type": "function"
    },
    {
      "inputs": [],
      "name": "acceptOwnership",
      "outputs": [],
      "stateMutability": "nonpayable",
      "type": "function"
    },
    {
      "inputs": [
        {
          "internalType": "uint256",
          "name": "",
          "type": "uint256"
        }
      ],
      "name": "allocations",
      "outputs": [
        {
          "internalType": "uint256",
          "name": "",
          "type": "uint256"
        }
      ],
      "stateMutability": "view",
      "type": "function"
    },
    {
      "inputs": [
        {
          "internalType": "address",
          "name": "owner",
          "type": "address"
        },
        {
          "internalType": "address",
          "name": "spender",
          "type": "address"
        }
      ],
      "name": "allowance",
      "outputs": [
        {
          "internalType": "uint256",
          "name": "",
          "type": "uint256"
        }
      ],
      "stateMutability": "view",
      "type": "function"
    },
    {
      "inputs": [
        {
          "internalType": "address",
          "name": "spender",
          "type": "address"
        },
        {
          "internalType": "uint256",
          "name": "value",
          "type": "uint256"
        }
      ],
      "name": "approve",
      "outputs": [
        {
          "internalType": "bool",
          "name": "",
          "type": "bool"
        }
      ],
      "stateMutability": "nonpayable",
      "type": "function"
    },
    {
      "inputs": [
        {
          "internalType": "address",
          "name": "account",
          "type": "address"
        }
      ],
      "name": "balanceOf",
      "outputs": [
        {
          "internalType": "uint256",
          "name": "",
          "type": "uint256"
        }
      ],
      "stateMutability": "view",
      "type": "function"
    },
    {
      "inputs": [
        {
          "internalType": "address",
          "name": "user",
          "type": "address"
        },
        {
          "internalType": "uint256",
          "name": "amountLP",
          "type": "uint256"
        }
      ],
      "name": "calcAllocatedTokensForWithdraw",
      "outputs": [
        {
          "internalType": "uint256[]",
          "name": "allocatedTokens",
          "type": "uint256[]"
        }
      ],
      "stateMutability": "view",
      "type": "function"
    },
    {
      "inputs": [
        {
          "internalType": "uint256",
          "name": "baseTokenAmount",
          "type": "uint256"
        },
        {
          "internalType": "bool",
          "name": "useXBR",
          "type": "bool"
        }
      ],
      "name": "calcBaseTokenAllocationForDeposit",
      "outputs": [
        {
          "internalType": "uint256[]",
          "name": "",
          "type": "uint256[]"
        },
        {
          "internalType": "uint256",
          "name": "",
          "type": "uint256"
        }
      ],
      "stateMutability": "view",
      "type": "function"
    },
    {
      "inputs": [],
      "name": "decimals",
      "outputs": [
        {
          "internalType": "uint8",
          "name": "",
          "type": "uint8"
        }
      ],
      "stateMutability": "view",
      "type": "function"
    },
    {
      "inputs": [
        {
          "internalType": "uint256",
          "name": "baseTokenAmount",
          "type": "uint256"
        },
        {
          "internalType": "bytes[]",
          "name": "oneInchSwapData",
          "type": "bytes[]"
        },
        {
          "internalType": "bool",
          "name": "useXBR",
          "type": "bool"
        }
      ],
      "name": "deposit",
      "outputs": [
        {
          "internalType": "uint256",
          "name": "",
          "type": "uint256"
        }
      ],
      "stateMutability": "nonpayable",
      "type": "function"
    },
    {
      "inputs": [
        {
          "internalType": "address",
          "name": "to",
          "type": "address"
        },
        {
          "internalType": "uint256",
          "name": "baseTokenAmount",
          "type": "uint256"
        },
        {
          "internalType": "bytes[]",
          "name": "oneInchSwapData",
          "type": "bytes[]"
        },
        {
          "internalType": "bool",
          "name": "useXBR",
          "type": "bool"
        }
      ],
      "name": "depositTo",
      "outputs": [
        {
          "internalType": "uint256",
          "name": "",
          "type": "uint256"
        }
      ],
      "stateMutability": "nonpayable",
      "type": "function"
    },
    {
      "inputs": [],
      "name": "getTokensAndAllocation",
      "outputs": [
        {
          "internalType": "address[]",
          "name": "",
          "type": "address[]"
        },
        {
          "internalType": "uint256[]",
          "name": "",
          "type": "uint256[]"
        }
      ],
      "stateMutability": "view",
      "type": "function"
    },
    {
      "inputs": [
        {
          "internalType": "uint256",
          "name": "_poolId",
          "type": "uint256"
        },
        {
          "internalType": "address",
          "name": "_poolOwner",
          "type": "address"
        },
        {
          "internalType": "address[]",
          "name": "_tokens",
          "type": "address[]"
        },
        {
          "internalType": "uint256[]",
          "name": "_allocations",
          "type": "uint256[]"
        },
        {
          "internalType": "uint256",
          "name": "_profitSharingFeeNumerator",
          "type": "uint256"
        },
        {
          "internalType": "uint256[]",
          "name": "_tokensAmounts",
          "type": "uint256[]"
        },
        {
          "internalType": "uint256",
          "name": "initialBaseTokenAmount",
          "type": "uint256"
        }
      ],
      "name": "initialize",
      "outputs": [],
      "stateMutability": "nonpayable",
      "type": "function"
    },
    {
      "inputs": [],
      "name": "name",
      "outputs": [
        {
          "internalType": "string",
          "name": "",
          "type": "string"
        }
      ],
      "stateMutability": "view",
      "type": "function"
    },
    {
      "inputs": [],
      "name": "owner",
      "outputs": [
        {
          "internalType": "address",
          "name": "",
          "type": "address"
        }
      ],
      "stateMutability": "view",
      "type": "function"
    },
    {
      "inputs": [],
      "name": "pendingOwner",
      "outputs": [
        {
          "internalType": "address",
          "name": "",
          "type": "address"
        }
      ],
      "stateMutability": "view",
      "type": "function"
    },
    {
      "inputs": [],
      "name": "poolId",
      "outputs": [
        {
          "internalType": "uint256",
          "name": "",
          "type": "uint256"
        }
      ],
      "stateMutability": "view",
      "type": "function"
    },
    {
      "inputs": [],
      "name": "profitSharingFeeNumerator",
      "outputs": [
        {
          "internalType": "uint256",
          "name": "",
          "type": "uint256"
        }
      ],
      "stateMutability": "view",
      "type": "function"
    },
    {
      "inputs": [],
      "name": "renounceOwnership",
      "outputs": [],
      "stateMutability": "nonpayable",
      "type": "function"
    },
    {
      "inputs": [
        {
          "internalType": "uint256",
          "name": "_profitSharingFeeNumerator",
          "type": "uint256"
        }
      ],
      "name": "setProfitSharingFeeNumerator",
      "outputs": [],
      "stateMutability": "nonpayable",
      "type": "function"
    },
    {
      "inputs": [],
      "name": "symbol",
      "outputs": [
        {
          "internalType": "string",
          "name": "",
          "type": "string"
        }
      ],
      "stateMutability": "view",
      "type": "function"
    },
    {
      "inputs": [
        {
          "internalType": "uint256",
          "name": "",
          "type": "uint256"
        }
      ],
      "name": "tokens",
      "outputs": [
        {
          "internalType": "address",
          "name": "",
          "type": "address"
        }
      ],
      "stateMutability": "view",
      "type": "function"
    },
    {
      "inputs": [],
      "name": "tokensLength",
      "outputs": [
        {
          "internalType": "uint256",
          "name": "",
          "type": "uint256"
        }
      ],
      "stateMutability": "view",
      "type": "function"
    },
    {
      "inputs": [],
      "name": "totalAllocation",
      "outputs": [
        {
          "internalType": "uint256",
          "name": "",
          "type": "uint256"
        }
      ],
      "stateMutability": "view",
      "type": "function"
    },
    {
      "inputs": [],
      "name": "totalProfitSharingFee",
      "outputs": [
        {
          "internalType": "uint256",
          "name": "",
          "type": "uint256"
        }
      ],
      "stateMutability": "view",
      "type": "function"
    },
    {
      "inputs": [],
      "name": "totalSupply",
      "outputs": [
        {
          "internalType": "uint256",
          "name": "",
          "type": "uint256"
        }
      ],
      "stateMutability": "view",
      "type": "function"
    },
    {
      "inputs": [
        {
          "internalType": "address",
          "name": "token",
          "type": "address"
        }
      ],
      "name": "totalTokenAmount",
      "outputs": [
        {
          "internalType": "uint256",
          "name": "",
          "type": "uint256"
        }
      ],
      "stateMutability": "view",
      "type": "function"
    },
    {
      "inputs": [
        {
          "internalType": "address",
          "name": "to",
          "type": "address"
        },
        {
          "internalType": "uint256",
          "name": "value",
          "type": "uint256"
        }
      ],
      "name": "transfer",
      "outputs": [
        {
          "internalType": "bool",
          "name": "",
          "type": "bool"
        }
      ],
      "stateMutability": "nonpayable",
      "type": "function"
    },
    {
      "inputs": [
        {
          "internalType": "address",
          "name": "from",
          "type": "address"
        },
        {
          "internalType": "address",
          "name": "to",
          "type": "address"
        },
        {
          "internalType": "uint256",
          "name": "value",
          "type": "uint256"
        }
      ],
      "name": "transferFrom",
      "outputs": [
        {
          "internalType": "bool",
          "name": "",
          "type": "bool"
        }
      ],
      "stateMutability": "nonpayable",
      "type": "function"
    },
    {
      "inputs": [
        {
          "internalType": "address",
          "name": "newOwner",
          "type": "address"
        }
      ],
      "name": "transferOwnership",
      "outputs": [],
      "stateMutability": "nonpayable",
      "type": "function"
    },
    {
      "inputs": [
        {
          "internalType": "address",
          "name": "user",
          "type": "address"
        },
        {
          "internalType": "address",
          "name": "token",
          "type": "address"
        }
      ],
      "name": "userTokenAmount",
      "outputs": [
        {
          "internalType": "uint256",
          "name": "",
          "type": "uint256"
        }
      ],
      "stateMutability": "view",
      "type": "function"
    },
    {
      "inputs": [
        {
          "internalType": "uint256",
          "name": "amountLP",
          "type": "uint256"
        },
        {
          "internalType": "bytes[]",
          "name": "oneInchSwapData",
          "type": "bytes[]"
        },
        {
          "internalType": "bool",
          "name": "useXBR",
          "type": "bool"
        }
      ],
      "name": "withdraw",
      "outputs": [
        {
          "internalType": "uint256",
          "name": "",
          "type": "uint256"
        }
      ],
      "stateMutability": "nonpayable",
      "type": "function"
    },
    {
      "inputs": [],
      "name": "xstakingFactory",
      "outputs": [
        {
          "internalType": "contract IXStakingFactory",
          "name": "",
          "type": "address"
        }
      ],
      "stateMutability": "view",
      "type": "function"
    }
  ],
  "bytecode": "0x608060405234801561001057600080fd5b50612bda806100206000396000f3fe608060405234801561001057600080fd5b50600436106101fb5760003560e01c806370a082311161011a578063a9059cbb116100ad578063d92fc67b1161007c578063d92fc67b1461043e578063dd62ed3e14610446578063e30c397814610459578063ee91c5b014610461578063f2fde38b1461048257600080fd5b8063a9059cbb14610403578063b38d6a3114610416578063bd7f63741461041f578063d73792a91461043557600080fd5b8063821b9771116100e9578063821b9771146103c05780638da5cb5b146103e057806395d89b41146103e85780639bc16f71146103f057600080fd5b806370a0823114610394578063715018a6146103a757806379203dc4146103af57806379ba5097146103b857600080fd5b806323b872dd116101925780634181904011610161578063418190401461033057806344889699146103435780634f64b2be146103565780635de5cf111461038157600080fd5b806323b872dd146102f2578063313ce567146103055780633705d2e9146103145780633e0dc34e1461032757600080fd5b80630a2642bf116101ce5780630a2642bf14610284578063132180cf1461029757806318160ddd146102a05780631f1a675d146102c757600080fd5b8063017eeb691461020057806306fdde03146102155780630738ce5114610233578063095ea7b314610261575b600080fd5b61021361020e366004612290565b610495565b005b61021d6104a9565b60405161022a91906122cd565b60405180910390f35b610253610241366004612315565b60086020526000908152604090205481565b60405190815260200161022a565b61027461026f366004612332565b61056c565b604051901515815260200161022a565b610253610292366004612290565b610586565b61025360065481565b7f52c63247e1f47db19d5ce0460030c497f067ca4cebf71ba98eeadabe20bace0254610253565b6102536102d536600461235e565b600760209081526000928352604080842090915290825290205481565b610274610300366004612397565b6105a7565b6040516012815260200161022a565b6102136103223660046124ac565b6105cd565b61025360015481565b61025361033e366004612615565b61094f565b610253610351366004612688565b610b44565b610369610364366004612290565b610b5c565b6040516001600160a01b03909116815260200161022a565b61025361038f366004612688565b610b86565b6102536103a2366004612315565b610b95565b610213610bbd565b61025360055481565b610213610bd1565b6103d36103ce366004612332565b610c16565b60405161022a9190612721565b610369610d07565b61021d610d3c565b600054610369906001600160a01b031681565b610274610411366004612332565b610d7b565b61025360025481565b610427610d89565b60405161022a929190612734565b61025361271081565b600354610253565b61025361045436600461235e565b610e46565b610369610e90565b61047461046f36600461278a565b610eb9565b60405161022a9291906127af565b610213610490366004612315565b611042565b61049d6110c7565b6104a6816110f9565b50565b7f52c63247e1f47db19d5ce0460030c497f067ca4cebf71ba98eeadabe20bace038054606091600080516020612b85833981519152916104e8906127d1565b80601f0160208091040260200160405190810160405280929190818152602001828054610514906127d1565b80156105615780601f1061053657610100808354040283529160200191610561565b820191906000526020600020905b81548152906001019060200180831161054457829003601f168201915b505050505091505090565b60003361057a81858561117b565b60019150505b92915050565b6004818154811061059657600080fd5b600091825260209091200154905081565b6000336105b585828561118d565b6105c08585856111e0565b60019150505b9392505050565b7ff0c57e16840df040f15088dc2f81fe391c3923bec73e23a9662efc9c229c6a008054600160401b810460ff1615906001600160401b03166000811580156106125750825b90506000826001600160401b0316600114801561062e5750303b155b90508115801561063c575080155b1561065a5760405163f92ee8a960e01b815260040160405180910390fd5b845467ffffffffffffffff19166001178555831561068457845460ff60401b1916600160401b1785555b61068d8b61123f565b6106d58c6040516020016106a1919061280b565b6040516020818303038152906040528d6040516020016106c19190612865565b604051602081830303815290604052611250565b600080546001600160a01b0319163317905560018c905589518951811480156106fe5750875181145b6107755760405162461bcd60e51b815260206004820152603860248201527f585374616b696e67506f6f6c3a20696e76616c6964206c656e677468206f662060448201527f5f746f6b656e7320616e64205f616c6c6f636174696f6e73000000000000000060648201526084015b60405180910390fd5b8a516107889060039060208e01906121db565b50895161079c9060049060208d0190612240565b506000808d815b848110156108de578e81815181106107bd576107bd612896565b6020026020010151925061080033308e84815181106107de576107de612896565b6020026020010151866001600160a01b03166112a1909392919063ffffffff16565b8b818151811061081257610812612896565b6020908102919091018101516001600160a01b03808516600090815260078452604080822092881682529190935282208054919290916108539084906128c2565b925050819055508b818151811061086c5761086c612896565b602002602001015160086000856001600160a01b03166001600160a01b0316815260200190815260200160002060008282546108a891906128c2565b925050819055508d81815181106108c1576108c1612896565b6020026020010151846108d491906128c2565b93506001016107a3565b506108e9818b611308565b60058390556108f78c6110f9565b50505050831561094157845460ff60401b19168555604051600181527fc7f505b2f371ae2175ee4913f4499e1f2633a7b5936321eed1cdaeb6115181d29060200160405180910390a15b505050505050505050505050565b60035460009083146109c95760405162461bcd60e51b815260206004820152603a60248201527f585374616b696e67506f6f6c3a20696e76616c6964206c656e677468206f662060448201527f746f6b656e7320616e64206f6e65496e63685377617044617461000000000000606482015260840161076c565b600080546040805163446cb98d60e01b8152815184936001600160a01b03169263446cb98d92600480820193918290030181865afa158015610a0f573d6000803e3d6000fd5b505050506040513d601f19601f82011682018060405250810190610a3391906128d5565b9092509050610a4d6001600160a01b03831633308a6112a1565b83610b05576000805460408051632593852360e11b8152815184936001600160a01b031692634b270a4692600480820193918290030181865afa158015610a98573d6000803e3d6000fd5b505050506040513d601f19601f82011682018060405250810190610abc9190612904565b9092509050600081610ace848c612928565b610ad8919061293f565b600054909150610af5906001600160a01b03878116911683611342565b610aff818b612961565b99505050505b610b196001600160a01b0383168289611373565b610b268888838989611403565b610b2e611592565b610b388888611308565b50949695505050505050565b6000610b533386868686611688565b95945050505050565b60038181548110610b6c57600080fd5b6000918252602090912001546001600160a01b0316905081565b6000610b53338686868661094f565b6001600160a01b03166000908152600080516020612b85833981519152602052604090205490565b610bc56110c7565b610bcf60006118ce565b565b3380610bdb610e90565b6001600160a01b031614610c0d5760405163118cdaa760e01b81526001600160a01b038216600482015260240161076c565b6104a6816118ce565b600354606090806001600160401b03811115610c3457610c346123d8565b604051908082528060200260200182016040528015610c5d578160200160208202803683370190505b5091506000805b82811015610cfe5760038181548110610c7f57610c7f612896565b6000918252602090912001546001600160a01b03169150610c9f86610b95565b6001600160a01b03808816600090815260076020908152604080832093871683529290522054610ccf9087612928565b610cd9919061293f565b848281518110610ceb57610ceb612896565b6020908102919091010152600101610c64565b50505092915050565b6000807f9016d09d72d40fdae2fd8ceac6b6234c7706214fd39c1cd1e609a0528c1993005b546001600160a01b031692915050565b7f52c63247e1f47db19d5ce0460030c497f067ca4cebf71ba98eeadabe20bace048054606091600080516020612b85833981519152916104e8906127d1565b60003361057a8185856111e0565b6060806003600481805480602002602001604051908101604052809291908181526020018280548015610de557602002820191906000526020600020905b81546001600160a01b03168152600190910190602001808311610dc7575b5050505050915080805480602002602001604051908101604052809291908181526020018280548015610e3757602002820191906000526020600020905b815481526020019060010190808311610e23575b50505050509050915091509091565b6001600160a01b0391821660009081527f52c63247e1f47db19d5ce0460030c497f067ca4cebf71ba98eeadabe20bace016020908152604080832093909416825291909152205490565b6000807f237e158222e3e6968b72b9db0d8043aacf074ad9f650f0d1606b4d82ee432c00610d2c565b60035460609060009081816001600160401b03811115610edb57610edb6123d8565b604051908082528060200260200182016040528015610f04578160200160208202803683370190505b50905084610fa4576000805460408051632593852360e11b8152815184936001600160a01b031692634b270a4692600480820193918290030181865afa158015610f52573d6000803e3d6000fd5b505050506040513d601f19601f82011682018060405250810190610f769190612904565b9092509050600081610f88848b612928565b610f92919061293f565b9050610f9e818a612961565b98505050505b6000805b838110156110335760055460048281548110610fc657610fc6612896565b906000526020600020015489610fdc9190612928565b610fe6919061293f565b838281518110610ff857610ff8612896565b60200260200101818152505082818151811061101657611016612896565b60200260200101518261102991906128c2565b9150600101610fa8565b509093509150505b9250929050565b61104a6110c7565b7f237e158222e3e6968b72b9db0d8043aacf074ad9f650f0d1606b4d82ee432c0080546001600160a01b0319166001600160a01b038316908117825561108e610d07565b6001600160a01b03167f38d16b8cac22d99fc7c124b9cd0de2d3fa1faef420bfe791d8c362d765e2270060405160405180910390a35050565b336110d0610d07565b6001600160a01b031614610bcf5760405163118cdaa760e01b815233600482015260240161076c565b8060641115801561110c57506113248111155b6111765760405162461bcd60e51b815260206004820152603560248201527f585374616b696e67506f6f6c3a205f70726f66697453686172696e674665654e6044820152741d5b595c985d1bdc881bdd5d081bd988189bdd5b99605a1b606482015260840161076c565b600255565b6111888383836001611906565b505050565b60006111998484610e46565b905060001981146111da57818110156111cb57828183604051637dc7a0d960e11b815260040161076c93929190612974565b6111da84848484036000611906565b50505050565b6001600160a01b03831661120a57604051634b637e8f60e11b81526000600482015260240161076c565b6001600160a01b0382166112345760405163ec442f0560e01b81526000600482015260240161076c565b6111888383836119ee565b611247611b2a565b6104a681611b73565b611258611b2a565b600080516020612b858339815191527f52c63247e1f47db19d5ce0460030c497f067ca4cebf71ba98eeadabe20bace0361129284826129e3565b50600481016111da83826129e3565b6040516001600160a01b0384811660248301528381166044830152606482018390526111da9186918216906323b872dd906084015b604051602081830303815290604052915060e01b6020820180516001600160e01b038381831617835250505050611ba5565b6001600160a01b0382166113325760405163ec442f0560e01b81526000600482015260240161076c565b61133e600083836119ee565b5050565b6040516001600160a01b0383811660248301526044820183905261118891859182169063a9059cbb906064016112d6565b604080516001600160a01b038416602482015260448082018490528251808303909101815260649091019091526020810180516001600160e01b031663095ea7b360e01b1790526113c48482611c08565b6111da576040516001600160a01b038481166024830152600060448301526113f991869182169063095ea7b3906064016112d6565b6111da8482611ba5565b600354600080805b83811015611587576003818154811061142657611426612896565b6000918252602090912001546001600160a01b0316915061149f8787878481811061145357611453612896565b90506020028101906114659190612aa2565b8080601f016020809104026020016040519081016040528093929190818152602001838380828437600092019190915250611cab92505050565b6001600160a01b03808b1660009081526007602090815260408083209387168352929052908120805492955085929091906114db9084906128c2565b90915550506001600160a01b038216600090815260086020526040812080548592906115089084906128c2565b925050819055507f2d170e91d26d1eda42fb91af14619af1ca57b4297a0c544532481565bdc7d43682846005546004858154811061154857611548612896565b90600052602060002001548c61155e9190612928565b611568919061293f565b60405161157793929190612974565b60405180910390a160010161140b565b505050505050505050565b6003546000816001600160401b038111156115af576115af6123d8565b6040519080825280602002602001820160405280156115d8578160200160208202803683370190505b50905060005b828110156116495760086000600383815481106115fd576115fd612896565b60009182526020808320909101546001600160a01b03168352820192909252604001902054825183908390811061163657611636612896565b60209081029190910101526001016115de565b507f191b6e66f50a9c8c6f93b7c906c42a1bebb69a74f195d054342767f323710dd060038260405161167c929190612ae8565b60405180910390a15050565b60008061169487610b95565b9050808611156116f15760405162461bcd60e51b815260206004820152602260248201527f585374616b696e67506f6f6c3a20616d6f756e744c50203e2062616c616e636560448201526127b360f11b606482015260840161076c565b600080546040805163446cb98d60e01b8152815184936001600160a01b03169263446cb98d92600480820193918290030181865afa158015611737573d6000803e3d6000fd5b505050506040513d601f19601f8201168201806040525081019061175b91906128d5565b91509150600061176f8a8a86858c8c611d70565b905085611829576000805460408051634ec618af60e11b8152815184936001600160a01b031692639d8c315e92600480820193918290030181865afa1580156117bc573d6000803e3d6000fd5b505050506040513d601f19601f820116820180604052508101906117e09190612904565b90925090506000816117f28486612928565b6117fc919061293f565b600054909150611819906001600160a01b03888116911683611342565b6118238185612961565b93505050505b6000896118368387612928565b611840919061293f565b90508481111561189a576000612710600254878461185e9190612961565b6118689190612928565b611872919061293f565b9050806006600082825461188691906128c2565b9091555061189690508184612961565b9250505b6118ae6001600160a01b0385168c84611342565b6118b6611592565b6118c0338b611f11565b509998505050505050505050565b7f237e158222e3e6968b72b9db0d8043aacf074ad9f650f0d1606b4d82ee432c0080546001600160a01b031916815561133e82611f47565b600080516020612b858339815191526001600160a01b03851661193f5760405163e602df0560e01b81526000600482015260240161076c565b6001600160a01b03841661196957604051634a1406b160e11b81526000600482015260240161076c565b6001600160a01b038086166000908152600183016020908152604080832093881683529290522083905581156119e757836001600160a01b0316856001600160a01b03167f8c5be1e5ebec7d5bd14f71427d1e84f3dd0314c0f7b2291e5b200ac8c7c3b925856040516119de91815260200190565b60405180910390a35b5050505050565b60006119f984610b95565b9050611a06848484611fb8565b6001600160a01b0384161580611a2357506001600160a01b038316155b15611a2e5750505050565b600354600080805b83811015611b205760038181548110611a5157611a51612896565b60009182526020808320909101546001600160a01b038b81168452600783526040808520919092168085529252909120549092508590611a919088612928565b611a9b919061293f565b6001600160a01b03808a166000908152600760209081526040808320938716835292905290812080549295508592909190611ad7908490612961565b90915550506001600160a01b03808816600090815260076020908152604080832093861683529290529081208054859290611b139084906128c2565b9091555050600101611a36565b5050505050505050565b7ff0c57e16840df040f15088dc2f81fe391c3923bec73e23a9662efc9c229c6a0054600160401b900460ff16610bcf57604051631afcd79f60e31b815260040160405180910390fd5b611b7b611b2a565b6001600160a01b038116610c0d57604051631e4fbdf760e01b81526000600482015260240161076c565b6000611bba6001600160a01b038416836120e3565b90508051600014158015611bdf575080806020019051810190611bdd9190612b32565b155b1561118857604051635274afe760e01b81526001600160a01b038416600482015260240161076c565b6000806000846001600160a01b031684604051611c259190612b4f565b6000604051808303816000865af19150503d8060008114611c62576040519150601f19603f3d011682016040523d82523d6000602084013e611c67565b606091505b5091509150818015611c91575080511580611c91575080806020019051810190611c919190612b32565b8015610b535750505050506001600160a01b03163b151590565b6000806000846001600160a01b031684604051611cc89190612b4f565b6000604051808303816000865af19150503d8060008114611d05576040519150601f19603f3d011682016040523d82523d6000602084013e611d0a565b606091505b509150915081611d505760405162461bcd60e51b81526020600482015260116024820152700c5a5b98da081cddd85c0819985a5b1959607a1b604482015260640161076c565b600081806020019051810190611d669190612b6b565b9695505050505050565b60035460009081808080805b85811015611f005760038181548110611d9757611d97612896565b9060005260206000200160009054906101000a90046001600160a01b031691508a600760008f6001600160a01b03166001600160a01b031681526020019081526020016000206000846001600160a01b03166001600160a01b03168152602001908152602001600020548d611e0c9190612928565b611e16919061293f565b6001600160a01b03808f166000908152600760209081526040808320938716835292905290812080549297508792909190611e52908490612961565b90915550506001600160a01b03821660009081526008602052604081208054879290611e7f908490612961565b90915550611e9990506001600160a01b0383168b87611373565b611eaf8a8a8a8481811061145357611453612896565b9350611ebb84846128c2565b92507f2d170e91d26d1eda42fb91af14619af1ca57b4297a0c544532481565bdc7d436828686604051611ef093929190612974565b60405180910390a1600101611d7c565b50909b9a5050505050505050505050565b6001600160a01b038216611f3b57604051634b637e8f60e11b81526000600482015260240161076c565b61133e826000836119ee565b7f9016d09d72d40fdae2fd8ceac6b6234c7706214fd39c1cd1e609a0528c19930080546001600160a01b031981166001600160a01b03848116918217845560405192169182907f8be0079c531659141344cd1fd0a4f28419497f9722a3daafe3b4186f6b6457e090600090a3505050565b600080516020612b858339815191526001600160a01b038416611ff45781816002016000828254611fe991906128c2565b909155506120539050565b6001600160a01b038416600090815260208290526040902054828110156120345784818460405163391434e360e21b815260040161076c93929190612974565b6001600160a01b03851660009081526020839052604090209083900390555b6001600160a01b038316612071576002810180548390039055612090565b6001600160a01b03831660009081526020829052604090208054830190555b826001600160a01b0316846001600160a01b03167fddf252ad1be2c89b69c2b068fc378daa952ba7f163c4a11628f55a4df523b3ef846040516120d591815260200190565b60405180910390a350505050565b60606105c68383600084600080856001600160a01b031684866040516121099190612b4f565b60006040518083038185875af1925050503d8060008114612146576040519150601f19603f3d011682016040523d82523d6000602084013e61214b565b606091505b5091509150611d6686838360608261216b57612166826121b2565b6105c6565b815115801561218257506001600160a01b0384163b155b156121ab57604051639996b31560e01b81526001600160a01b038516600482015260240161076c565b50806105c6565b8051156121c25780518082602001fd5b604051630a12f52160e11b815260040160405180910390fd5b828054828255906000526020600020908101928215612230579160200282015b8281111561223057825182546001600160a01b0319166001600160a01b039091161782556020909201916001909101906121fb565b5061223c92915061227b565b5090565b828054828255906000526020600020908101928215612230579160200282015b82811115612230578251825591602001919060010190612260565b5b8082111561223c576000815560010161227c565b6000602082840312156122a257600080fd5b5035919050565b60005b838110156122c45781810151838201526020016122ac565b50506000910152565b60208152600082518060208401526122ec8160408501602087016122a9565b601f01601f19169190910160400192915050565b6001600160a01b03811681146104a657600080fd5b60006020828403121561232757600080fd5b81356105c681612300565b6000806040838503121561234557600080fd5b823561235081612300565b946020939093013593505050565b6000806040838503121561237157600080fd5b823561237c81612300565b9150602083013561238c81612300565b809150509250929050565b6000806000606084860312156123ac57600080fd5b83356123b781612300565b925060208401356123c781612300565b929592945050506040919091013590565b634e487b7160e01b600052604160045260246000fd5b604051601f8201601f191681016001600160401b0381118282101715612416576124166123d8565b604052919050565b60006001600160401b03821115612437576124376123d8565b5060051b60200190565b600082601f83011261245257600080fd5b813560206124676124628361241e565b6123ee565b82815260059290921b8401810191818101908684111561248657600080fd5b8286015b848110156124a1578035835291830191830161248a565b509695505050505050565b600080600080600080600060e0888a0312156124c757600080fd5b873596506020808901356124da81612300565b965060408901356001600160401b03808211156124f657600080fd5b818b0191508b601f83011261250a57600080fd5b81356125186124628261241e565b81815260059190911b8301840190848101908e83111561253757600080fd5b938501935b8285101561255e57843561254f81612300565b8252938501939085019061253c565b9950505060608b013592508083111561257657600080fd5b6125828c848d01612441565b965060808b0135955060a08b013592508083111561259f57600080fd5b50506125ad8a828b01612441565b92505060c0880135905092959891949750929550565b60008083601f8401126125d557600080fd5b5081356001600160401b038111156125ec57600080fd5b6020830191508360208260051b850101111561103b57600080fd5b80151581146104a657600080fd5b60008060008060006080868803121561262d57600080fd5b853561263881612300565b94506020860135935060408601356001600160401b0381111561265a57600080fd5b612666888289016125c3565b909450925050606086013561267a81612607565b809150509295509295909350565b6000806000806060858703121561269e57600080fd5b8435935060208501356001600160401b038111156126bb57600080fd5b6126c7878288016125c3565b90945092505060408501356126db81612607565b939692955090935050565b600081518084526020808501945080840160005b83811015612716578151875295820195908201906001016126fa565b509495945050505050565b6020815260006105c660208301846126e6565b604080825283519082018190526000906020906060840190828701845b828110156127765781516001600160a01b031684529284019290840190600101612751565b50505083810382850152611d6681866126e6565b6000806040838503121561279d57600080fd5b82359150602083013561238c81612607565b6040815260006127c260408301856126e6565b90508260208301529392505050565b600181811c908216806127e557607f821691505b60208210810361280557634e487b7160e01b600052602260045260246000fd5b50919050565b60608152600061282e6060830160038152622c212960e91b602082015260400190565b8281036020840152600f81526e20585374616b696e67506f6f6c202360881b60208201526040810191505082604083015292915050565b6040815260006128886040830160038152622c212960e91b602082015260400190565b905082602083015292915050565b634e487b7160e01b600052603260045260246000fd5b634e487b7160e01b600052601160045260246000fd5b80820180821115610580576105806128ac565b600080604083850312156128e857600080fd5b82516128f381612300565b602084015190925061238c81612300565b6000806040838503121561291757600080fd5b505080516020909101519092909150565b8082028115828204841417610580576105806128ac565b60008261295c57634e487b7160e01b600052601260045260246000fd5b500490565b81810381811115610580576105806128ac565b6001600160a01b039390931683526020830191909152604082015260600190565b601f82111561118857600081815260208120601f850160051c810160208610156129bc5750805b601f850160051c820191505b818110156129db578281556001016129c8565b505050505050565b81516001600160401b038111156129fc576129fc6123d8565b612a1081612a0a84546127d1565b84612995565b602080601f831160018114612a455760008415612a2d5750858301515b600019600386901b1c1916600185901b1785556129db565b600085815260208120601f198616915b82811015612a7457888601518255948401946001909101908401612a55565b5085821015612a925787850151600019600388901b60f8161c191681555b5050505050600190811b01905550565b6000808335601e19843603018112612ab957600080fd5b8301803591506001600160401b03821115612ad357600080fd5b60200191503681900382131561103b57600080fd5b6000604082016040835280855480835260608501915086600052602092508260002060005b828110156127765781546001600160a01b031684529284019260019182019101612b0d565b600060208284031215612b4457600080fd5b81516105c681612607565b60008251612b618184602087016122a9565b9190910192915050565b600060208284031215612b7d57600080fd5b505191905056fe52c63247e1f47db19d5ce0460030c497f067ca4cebf71ba98eeadabe20bace00a264697066735822122085bbcdc9bac23a5c9766e3d3d8442517f7125330b23218a31571645e1941dc1364736f6c63430008140033",
  "linkReferences": {},
  "deployedLinkReferences": {}
}